:1000000092EF01F0F76A140FF66E000EF722090066
:10001000F5501200313233413435364237383943E6
:100020002A302344F76A340FF66E000EF7220900D7
:10003000F5501200303030303000494E47524553B1
:1000400045204C4120434C4156453A200000436C2A
:1000500041564520434F5252454354410000436CA2
:1000600041564520494E434F5252454354410000AA
:100070000C53495354454D4120424C4F5155454135
:10008000444F0000EA6A1D0EE96EEF5006E0200EB4
:10009000006E002EFED7EF2EFAD712002238F00B9A
:1000A000006E0F0E8C1400108C6E00008C808C90F3
:1000B00012008350006E00380F0B016E12000F0EFD
:1000C0009514F009956E8C8400008C800000F1DF9F
:1000D00001C022F08C9000008C80EBDF01C021F089
:1000E0008C900F0E9514956E2238006EF00E00164F
:1000F00000502110016E82EF00F09590959295943A
:100100008C92DDD701C021F001BEFBD78C921FB0CD
:100110008C8200008C9400008C902038216E0F0E91
:10012000211621C022F0BADF20500F0B216E226E63
:10013000B5DF1200280E196E0C0E1A6E010E1B6E22
:10014000060E1C6E8C908C928C940F0E9514956EEE
:100150009590959295940F0E1D6E94DF010E186E7A
:10016000185003080AE3030E226E98DFA60E006EF5
:10017000002EFED70000182AF3D7020E226E8EDF63
:10018000A60E006E002EFED70000186A1850030855
:100190000FE3036A1850190FE96E000E0320EA6E90
:1001A000EFCF1DF01F6A1DC020F0A7DF182AEED781
:1001B000B4EF01F0B5EF01F0186A042A04502108E9
:1001C00050E20750FC0F12E2040F36EF01F0FE0E72
:1001D000936E816E0BD0FD0E936E816E07D0FB0E79
:1001E000936E816E03D0F70E936E816E05A009D0D9
:1001F0008150F00BF00804E1059006C018F0066A83
:100200002FD08150F00BF00826E08150100B02E156
:10021000196A11D08150200B03E1010E196E0BD029
:100220008150400B03E1020E196E05D08150800B06
:1002300002E1030E196E1950040DF3501B6A1A6E79
:10024000036A07501A24016E1B5003220150DADEA4
:10025000066E058005D0072A0750040801E1076AE9
:10026000046AFF0E936E18C001F01200E824F76ACA
:10027000F736870FF66E020EF7220A00F550FA6E77
:100280000800F550F96ECE01D601DE01E6011C2C06
:1002900001D003D0400E1D6E01D01D6A010E1B5C03
:1002A0001D261D5080091E6E1F6A206E26DF12005B
:1002B0001A50070A07E00B0A0AE0060A12E0020ACF
:1002C00016E01AD0010E1B6E1C6EE1DF1AD01F6AF9
:1002D000010E206E12DF420E006E002EFED70000CF
:1002E00010D0010E1B6E020E1C6ED1DF0AD01F6AE9
:1002F000100E206E02DF05D0010E1F6E1AC020F016
:10030000FCDE12000900F5520CE0F6CF18F0F7CF32
:1003100019F0F5CF1AF0CCDF18C0F6FF19C0F7FFBF
:10032000F1D71200F86AD09E010E086EC150C00BC2
:100330000F09C16E070EB46E0590046A0590066A37
:10034000076A300E0D6E310E0E6E390E0F6E106E86
:10035000380E116E300E126E136E146E156E166E10
:10036000176A000E926EE6D625D7F19E25DF01C0F2
:100370000CF0300E0C5C096E010E1B6E1C6E87DFDC
:100380003A0EF66E000EF76EBDDF926A020E896EAF
:100390000C5218E00C50230815E00C502A0812E00B
:1003A00008C01BF0020E1C6E72DF0CC01AF080DF5A
:1003B000036A0850120FE96E000E0320EA6E0CC0AB
:1003C000EFFF082A0C52D8B470D00C502A08D8A4D9
:1003D0006CD00A6A0A6A0A50040816E3036A0A50D3
:1003E000120FE96E000E0320EA6EEFCF18F0036AD9
:1003F0000A500D0FE96E000E0320EA6EEF50185CF4
:1004000001E002D00A2AE7D70A5005082BE1D4DE22
:1004100001C00CF0010E1B6E020E1C6E38DF4E0E7A
:10042000F66E000EF76E6EDF926A010E896E0B6A31
:100430000C502A08ECE1010E086EEA6A120EE96E11
:10044000000EF0DD0A000900F550EE6E0009FBE138
:100450000A6A0C0E1A6E2CDFA60E006E002EFED756
:10046000000023D0010E1B6E020E1C6E10DF5E0E0C
:10047000F66E000EF76E46DF030E186EC80E1D6E88
:1004800001DE182EFBD7010E086E0B2AEA6A120E47
:10049000E96E000EC7DD0A000900F550EE6E000996
:1004A000FBE10A6A0C0E1A6E03DF0C5215E00C50C9
:1004B000230812E10806036A0850120FE96E000EC5
:1004C0000320EA6E300EEF6E08C01BF0020E1C6EA9
:1004D000DEDE200E1A6EECDE085202E1010E086E1E
:1004E0000B5003080BE1700EF66E000EF76E0ADF7C
:1004F000A60E006E002EFED70000F5D737D70300FA
:020000040030CA
:0E0000003FCC3E1E0087A1000FC00FE00F4056
:00000001FF
;PIC18F4550
;CRC=B30F  CREATED="09-oct.-21 22:36"
